:020000040800F2
:100000000050002021020008270200082B020008EF
:100010009D020008A1020008E9020008000000009B
:100020000000000000000000000000003103000894
:100030003503000800000000390300083D030008F4
:100040004D0300084D0300084D0300084D03000850
:100050004D0300084D03000855070008710700080C
:100060008D070008A9070008C50700084D03000810
:100070004D0300084D0300084D0300084D03000820
:100080004D0300084D0300084D0300084D03000810
:100090004D0300084D0300084D030008E107000868
:1000A0004D0300084D0300084D0300084D030008F0
:1000B0004D0300084D0300084D0300084D030008E0
:1000C0004D0300084D0300084D0300084D030008D0
:1000D0004D0300084D0300084D0300084D030008C0
:1000E000710800084D0300084D03000800000000DF
:1000F0000000000000000000000000000000000000
:1001000000000000000000005FF808F100B583B0B7
:1001100000F0AEF9304B314A1360314A1360314B75
:10012000314A03E052F8041B43F8041B2F498B4269
:10013000F8D32A4B1A682E4B9A4200D0FEE7284B80
:100140001A682C4B9A42F9D1234B2B4A13602B4A45
:1001500013602B4B02E0002243F8042B294A934200
:10016000F9D3254B1B6813B9244B1B6803B1FEE779
:1001700000F08AF9694601A800F022F9224C234BCD
:10018000E41AA410002504E0204B53F825309847CA
:100190000135AC42F8DC1E4C1E4BE41AA4100025BD
:1001A00004E01C4B53F8253098470135AC42F8DC8D
:1001B0000099019800F0CEFB0546174C174BE41A46
:1001C000A41004E0013C154B53F824309847002C50
:1001D000F8DC284600F0D0F8BABADECA00000020E9
:1001E0007000002000000020A0140008740000200F
:1001F0007856341232547698740000204C01002056
:1002000074000020500100207803000878030008E3
:1002100078030008780300087803000878030008D2
:1002200008B5FFF773FF00BEFEE71EF0040F0CBF1A
:10023000EFF30880EFF309807146414A10472DE93A
:10024000F04182B004460D46124B5F6BD3F8388004
:100250009E6A1B6B13F0020F03D00E4BDB6A002B60
:100260000BDB0D4800F0B4F8009543463A463146A2
:10027000204600F00DF900BEFEE74BF6AB6100F042
:1002800081F90028EDD0034B4FF00042DA6202B052
:10029000BDE8F08100ED00E01814000800BEFEE7A4
:1002A0001EF0040F0CBFEFF30880EFF309807146D6
:1002B000244A10472DE9F04182B004460D46084B10
:1002C0005F6BD3F838809E6A064800F081F800958D
:1002D00043463A463146204600F0DAF800BEFEE7D3
:1002E00000ED00E0281400081EF0040F0CBFEFF32F
:1002F0000880EFF309807146134A10472DE9F04159
:1003000082B004460D46084B5F6BD3F838809E6A76
:10031000064800F05DF8009543463A4631462046CF
:1003200000F0B6F800BEFEE700ED00E0341400086F
:1003300000BEFEE700BEFEE700BEFEE7704700001D
:100340003F020008B5020008FD02000800BEFEE7FB
:10035000A01400080000002074000020A014000871
:100360000000000000000000740000205001002088
:08037000000000000000000085
:10037800FEE7000008B503460C4A12685AB10B4A5A
:100388001068033323F003030344094A934206D851
:10039800064A136008BD054A06491160EFE700F0F8
:1003A80039FB0C2303604FF0FF30F3E7780000209F
:1003B800004C00205001002001230360014B0B601A
:1003C800704700BF040000200FB400B583B004AB31
:1003D80053F8042B01938021074800F00DFB0028F7
:1003E80004DC03B05DF804EB04B070470146024832
:1003F80000F035F8F5E700BF840000202DE9F04350
:1004080085B004460F4643563BBB04252846214683
:10041800ABBE0546384605B0BDE8F08314F901CBFC
:1004280003F110026A4402F810CC0133AB42F5D351
:1004380010336B44002203F8102C4FF00408E946EF
:1004480040464946ABBE8046761B002EE2D0354674
:10045800102E28BF10250023E8E70E46F5E708B55B
:10046800FFF7CCFF08BD000008B500F0FDF8024A10
:10047800024B9A6008BD00BF0000000800ED00E0D4
:1004880008B500F019F908BDF8B504460D46174639
:100498001E462748FFF798FF21682648FFF794FF74
:1004A80061682548FFF790FFA1682448FFF78CFF93
:1004B800E1682348FFF788FF21692248FFF784FF96
:1004C80061692148FFF780FFA1692048FFF77CFF99
:1004D800E1691F48FFF778FF1E48FFF775FF2946B7
:1004E8001D48FFF771FF1D4CE16A1D48FFF76CFFBF
:1004F800216B1C48FFF768FFE16B1B48FFF764FF9F
:1005080015F0800F0AD115F4004F0CD11748FFF7EA
:100518005BFF06991648FFF757FFF8BD394615489F
:10052800FFF752FFEFE731461348FFF74DFFEDE7BE
:10053800FC1200080C1300081C1300082C130008F8
:100548003C1300084C1300085C1300086C130008E7
:100558007C1300088C1300089813000800ED00E0D5
:10056800A8130008B8130008C8130008F8130008F7
:1005780000140008D8130008E813000883691A88D3
:100588008A4201D0002070470268033A012A01D943
:1005980000207047023383610120704782B0002336
:1005A800019300932C4A136843F4803313602A4B59
:1005B8001B6803F400330093019B01330193009BF4
:1005C8001BB9019BB3F5A06FF1D1234B1B6813F442
:1005D800003F06D001230093009B012B04D002B0FA
:1005E800704700230093F7E71C4B1A6842F010028B
:1005F8001A601A6822F003021A601A6842F00202AE
:100608001A60A3F580535A685A605A685A605A6843
:1006180042F480625A605A6822F47C125A605A681E
:1006280042F4E8125A601A6842F080721A600A4B63
:100638001B6813F0007FFAD0074B5A6822F00302B8
:100648005A605A6842F002025A60034B5B6803F032
:100658000C03082BF9D1C2E7001002400020024029
:1006680008B5FFF79BFF08BD08B5104B1A6842F0A4
:1006780001021A6059680E4A0A405A601A6822F044
:10068800847222F480321A601A6822F480221A6076
:100698005A6822F4FE025A604FF41F029A60FFF76C
:1006A800DFFF044B4FF000629A6008BD0010024063
:1006B8000000FFF800ED00E01F4B5B6803F00C033F
:1006C800042B15D0082B17D01BB11C4B1C4A1A60E1
:1006D80002E01A4B1A4A1A60174B5B68C3F30313FC
:1006E800184AD25CD2B215490B68D3400B607047E8
:1006F800124B134A1A60EFE70F4A53685268C3F364
:100708008343023312F4803F05D10F4A02FB03F3FF
:100718000A4A1360E0E7084A526812F4003F05D01D
:10072800094A02FB03F3054A1360D5E7044A02FBB2
:1007380003F3024A1360CFE7001002401C000020B8
:1007480000127A000C00002000093D0008B5044A98
:10075800536943F001035361024B1B68984708BD76
:10076800000401400401002008B5044A536943F01D
:1007780002035361024B5B68984708BD00040140BF
:100788000401002008B5044A536943F00403536187
:10079800024B9B68984708BD0004014004010020F3
:1007A80008B5044A536943F008035361024BDB68F8
:1007B800984708BD000401400401002008B5044A18
:1007C800536943F010035361024B1B69984708BDF6
:1007D800000401400401002008B5214B5B6913F0B7
:1007E800200F07D01E4A536943F0200353611D4B65
:1007F8005B6998471A4B5B6913F0400F07D0184A9A
:10080800536943F040035361164B9B699847144B57
:100818005B6913F0800F07D0114A536943F08003D6
:100828005361104BDB6998470D4B5B6913F4807F6C
:1008380007D00B4A536943F480735361094B1B6A11
:100848009847074B5B6913F4007F07D0044A536944
:1008580043F400735361034B5B6A984708BD00BFBC
:10086800000401400401002008B5274B5B6913F41C
:10087800806F07D0244A536943F480635361234B44
:100888009B6A9847204B5B6913F4006F07D01E4A98
:10089800536943F4006353611C4BDB6A98471A4B56
:1008A8005B6913F4805F07D0174A536943F4805398
:1008B8005361164B1B6B9847134B5B6913F4005F2E
:1008C80007D0114A536943F4005353610F4B5B6BD4
:1008D80098470D4B5B6913F4804F07D00A4A536958
:1008E80043F480435361094B9B6B9847064B5B6904
:1008F80013F4004F07D0044A536943F4004353618B
:10090800024BDB6B984708BD00040140040100203E
:10091800024A936943F00C03936170470010024048
:10092800094B0021C3F8001CD3F8002C42F0100238
:10093800C3F8002CC3F8041CD3F8042C42F480122A
:10094800C3F8042C704700BF0000014008B5FFF74A
:10095800DFFFFFF7E5FF114BD3F8083813F0020F5C
:100968000DD00E4BD3F8083813F4005FF3D00B4AC0
:10097800D2F80C3C83F40053C2F80C3CEBE7074A6E
:10098800D2F80C3C83F00203C2F80C3C034BD3F8BA
:10099800083813F0020FF9D0E3E700BF0000014068
:1009A80030B51446002C05461A469BB005DA8B2351
:1009B80003604FF0FF301BB030BD4FF40273ADF849
:1009C8000C300CBF234604F1FF33029305934FF616
:1009D800FF7300910491ADF80E3069461E9B00F03C
:1009E8007BF8431CBCBF8B232B60002CE3D0002278
:1009F800009B1A70DFE7000007B5009313460A460C
:100A0800014603480068FFF7CBFF03B05DF804FB1D
:100A180020000020014B1868704700BF200000200C
:100A28002DE9F0471F468E688246BE420C46904626
:100A38000B682DD8B1F90C2012F4906F26D0656997
:100A4800096905EB4505A3EB010905EBD5757B1C89
:100A58004B446D109D4238BF1D46530527D5294686
:100A680000F074FB064660B34A46216900F0F6FAC6
:100A7800A38923F4906343F08003A38126614E4445
:100A880026603E466561A5EB0905A560BE4200D912
:100A98003E4632464146206800F0B8FA0020A36876
:100AA8009B1BA360236833442360BDE8F0872A4674
:100AB80000F0D8FB06460028E0D15046216900F036
:100AC800DBFA0C23CAF80030A3894FF0FF3043F05B
:100AD8004003A381E9E700002DE9F04F98468B8990
:100AE80007461B060D4614469DB010D50B6973B911
:100AF800402100F02BFB2860286130B90C233B60B3
:100B08004FF0FF301DB0BDE8F08F40236B6100232C
:100B1800099320238DF8293030234FF00109CDF8AF
:100B28000C80DFF898818DF82A3023469A4613F80E
:100B3800012B0AB1252AF9D1BAEB040B0BD05B467D
:100B4800224629463846FFF76BFF013000F0A780A0
:100B5800099A5A4409929AF80030002B00F09F80B5
:100B680000234FF0FF32CDE905230AF1010A04936F
:100B780007938DF853301A935446052214F8011B35
:100B88004E4800F05DFA049AD8B9D00644BF202335
:100B98008DF85330110744BF2B238DF853309AF842
:100BA80000302A2B15D0544600204FF00A0C079A23
:100BB800214611F8013B303B092B4BD9B0B10792C4
:100BC80014E0A0EB080309FA03F31343A2460493C5
:100BD800D2E7039B191D1B680391002BBBBF5B4227
:100BE80042F0020207930793B8BF049223782E2B92
:100BF8000AD163782A2B32D1039B02341A1D1B6851
:100C0800039243EAE3730593DFF8B4A00322504646
:100C1800217800F015FA38B14022049BA0EB0A00B5
:100C2800824013430134049314F8011B062225481B
:100C38008DF8281000F004FA002836D0224B1BBB90
:100C4800039B073323F0070308330393099B3344BB
:100C580009936AE70C4601200CFB0232A8E700233F
:100C68004FF00A0C194601340593204610F8012B61
:100C7800303A092A03D9002BC6D00591C4E70446A7
:100C880001230CFB0121F0E703AB00932A46384609
:100C98000E4B04A9AFF30080421C0646D6D1AB899F
:100CA8005B063FF52DAF09982CE703AB00932A4666
:100CB8003846064B04A900F07DF8EDE74214000819
:100CC800481400084C14000800000000290A000815
:100CD8002DE9F047164698468A680B6907469342FD
:100CE800B8BF1346336091F843200C46DDF82090D6
:100CF8000AB1013333602368990642BF336802336F
:100D08003360256815F0060506D104F1190AE36871
:100D180032689B1AAB422BDC94F843302268003BC4
:100D280018BF0123920630D44146384604F14302E5
:100D3800C847013023D02368226903F00603042B37
:100D480014BF002533684FF0000608BFE56804F1BA
:100D58001A0408BFED1A54F8123C08BF25EAE575D5
:100D68009342C4BF9B1AED18B5421AD1002008E07F
:100D78000123524641463846C847013003D14FF057
:100D8800FF30BDE8F0870135C1E73020E11881F870
:100D980043005A1C94F845102244023382F8431049
:100DA800C2E70123224641463846C8470130E6D00B
:100DB8000136D9E72DE9FF470F7E9146782F804607
:100DC8000C469A460C9E01F1430207D8622F0AD8B6
:100DD800002F00F0DD80582F00F0C38004F1420698
:100DE80084F842703AE0A7F16303152BF6D801A105
:100DF80051F823F0550E0008690E0008E50D0008AB
:100E0800E50D0008E50D0008E50D0008690E00086D
:100E1800E50D0008E50D0008E50D0008E50D0008E2
:100E28007F0F0008F70E0008370F0008E50D0008CF
:100E3800E50D0008A10F0008E50D0008F70E0008F1
:100E4800E50D0008E50D00083F0F000833681A1D7E
:100E58001B68326004F1420684F842300123A8E09E
:100E680031682368081D30601E0601D50D6803E04F
:100E78005D06FBD5B1F90050002D616878DA2D20A8
:100E8800002984F84300A1602DDA0A235D486D42E9
:100E98001646B5FBF3F103FB1157C75D06F8017D54
:100EA8002F46BB420D46F4D9082B0BD12368DF0728
:100EB80008D5236961689942DEBF302306F8013CF2
:100EC80006F1FF36921B22614B4621464046CDF87B
:100ED80000A003AAFFF7FCFE01306FD14FF0FF30EE
:100EE80004B0BDE8F08723F004032360CDE7216850
:100EF8003368080653F8045B02D4490648BFADB20C
:100F08006F2F336014BF0A2308233E48002184F85A
:100F180043106668002EA660BADB216821F0040140
:100F28002160002DB4D1002EB2D11646BCE723684B
:100F380043F0200323607827334884F845702368FA
:100F480031681F0651F8045B02D45F0648BFADB292
:100F58003160D90744BF43F0200323601DB110233B
:100F6800D4E72848E9E7236823F020032360F6E75D
:100F78000A232448CDE733682568181D6169306065
:100F88002E061B6801D5196002E06806FBD519809A
:100F980000231646236197E7336800211A1D326043
:100FA8001E686268304600F04BF808B1801B60602C
:100FB80063682361002384F8433085E73246494655
:100FC80040462369D047013088D023689B0714D452
:100FD800E068039B9842B8BF184681E70123324670
:100FE80049464046D04701303FF478AF0135E368C1
:100FF80003995B1AAB42F1DCEAE7002504F1190614
:10100800F5E700BF5314000864140008884210B5BF
:1010180001EB020402D98442234607D8431EA142A9
:1010280008D011F8012B03F8012FF8E70146024414
:101038008A4200D110BD13F8014D02F8014DF7E7BF
:10104800034610B5C9B202449342184601D10020A4
:1010580003E0047801338C42F6D110BD0A44914272
:1010680000F1FF3300D1704710B511F8014B9142E0
:1010780003F8014FF9D110BD38B50546002940D015
:1010880051F8043C0C1F002BB8BFE41800F0DEF840
:101098001C4A136833B9636014602846BDE83840B9
:1010A80000F0DAB8A34208D9206821188B4201BFA2
:1010B80019685B6809182160EDE71A465B680BB18F
:1010C800A342FAD911685018A0420BD120680144F4
:1010D800501883421160E0D118685B6808441060BA
:1010E8005360DAE702D90C232B60D6E72068211871
:1010F8008B4201BF19685B680918216063605460FE
:10110800CBE738BD4401002070B50F4E0C4631685E
:10111800054611B900F0D4F830602146284600F0A1
:10112800CFF8431C03D14FF0FF34204670BDC41CD8
:1011380024F00304A042F8D0211A284600F0C0F891
:101148000130F2D1EFE700BF400100202DE9F8435C
:10115800CD1C25F0030508350C2D38BF0C25002DB6
:10116800064601DBA94204D90C2333600020BDE800
:10117800F883DFF8D48000F069F8D8F800301C460E
:1011880044BB29463046FFF7BFFF431C044658D1ED
:10119800D8F800402746002F43D1002C4BD02368B5
:1011A8003946304604EB030900F08AF8814542D1FC
:1011B800216830466D1A2946FFF7A6FF01303AD05C
:1011C80023682B442360D8F800305A6862BBC8F8FB
:1011D80000700FE02268521B20D40B2A17D961191E
:1011E800A342256018BF5960636808BFC8F800109B
:1011F80062514B60304600F02FF804F10B00231DBC
:1012080020F00700C21A1CBF1B1AA350AFE7626880
:10121800A3420CBFC8F800205A60EBE72346646875
:10122800AEE73C467F68B6E71A465B68A342FBD147
:1012380000235360DEE70C233046336000F00CF8DF
:1012480094E70560D6E700BF44010020014800F09C
:1012580047B800BF48010020014800F042B800BF6D
:10126800480100202DE9F041804615460C4621B979
:101278001146BDE8F041FFF769BF2AB9FFF7FCFE48
:1012880000242046BDE8F08100F02CF8854206468F
:1012980002D8B5EB500FF4D829464046FFF756FF61
:1012A80007460028ECD0B5422A46214628BF3246D8
:1012B800FFF7D4FE21464046FFF7DEFE3C46E0E756
:1012C80038B50023054D044608462B60FFF752F851
:1012D800431C02D12B6803B1236038BD8000002075
:1012E8007047704751F8043C181F002BBCBF0B58BF
:1012F800C0187047537461636B206672616D653AFC
:101308000A000000205230203D2020253038580A9D
:1013180000000000205231203D2020253038580A96
:1013280000000000205232203D2020253038580A85
:1013380000000000205233203D2020253038580A74
:101348000000000020523132203D20253038580A54
:1013580000000000204C52203D2020253038580A3B
:1013680000000000205043203D2020253038580A36
:101378000000000020505352203D20253038580AE4
:10138800000000004653522F4641523A0A0000001E
:101398002043465352203D2020253038580A00006B
:1013A8002048465352203D2020253038580A000056
:1013B8002044465352203D2020253038580A00004A
:1013C8002041465352203D2020253038580A00003D
:1013D800204D4D464152203D20253038580A000006
:1013E8002042464152203D2020253038580A00002E
:1013F8004D6973630A000000204C522F4558435F23
:1014080052455455524E3D20253038580A000000A8
:101418005B486172644661756C745D0A0000000087
:101428005B4275734661756C745D0A005B55736148
:1014380067654661756C745D0A00232D302B2000AA
:10144800686C4C0065666745464700303132333476
:101458003536373839414243444546003031323316
:1014680034353637383961626364656600000000D8
:101478001000000000000000017A5200027C0E01FA
:101488001B0C0D00100000001800000000000000F8
:0814980010000000000000003C
:1014A000785634127C00002000000000000000008C
:1014B00000000000010203040607080900A24A0414
:1014C0002400002000000000000000006800000070
:1014D000D00000000000000000000000000000003C
:1014E00000000000000000000000000000000000FC
:1014F00000000000000000000000000000000000EC
:1015000000000000000000000000000000000000DB
:041510003254769843
:040000050800010DE1
:00000001FF
